:100000000C94741F0C94911F0C94911F0C94911FCD
:100010000C94911F0C94911F0C94BC200C943620CE
:100020000C94911F0C94911F0C94911F0C94911F90
:100030000C94911F0C94911F0C94911F0C94911F80
:100040000C94911F0C94911F0C94911F0C94911F70
:100050000C94911F0C94911F0C94911F0C94911F60
:100060000C94911F0C94911F8080808080808080F0
:100070008080808080808080808080808080808080
:100080008080808080808080808080808080808070
:100090008080808080808080808080808080808060
:1000A0008080808080808080808080808080808050
:100690007F7F807F80807F807F7F807F7F80808062
:1006A0007F7F807F807F80807F8080808080807F50
:1006B000807F807F8080807F807F7F807F7F7F8042
:1006C0008080807F7F807F807F7F7F7F7F7F807F34
:1006D0007F7F7F7F7F7F7F7F7F7F7F807F7F7F7F29
:1006E0007F80807F7F7F7F80807F808080817F7E12
:1006F00080807E7E807F7F7E807F7E7F807F7F7F09
:100700007F807E7E80807E7E817F7D7E807F7E7FFB
:100710007F7F7E7F817D7C81807B7E827C7E7F7DF2
:100720007F7F7D7F7F7D80807A7C837C79818275ED
:100730007D867B78837F797D827D757F8775778CD9
:10074000766E8D7D6E848574817F7B847D768383D8
:10075000787F817E81797A897B77847D76858376BF
:100760007F886F7C8F70788D6F78917172987167C8
:100770009C7C648D87638A8C688A88628F8C678191
:100780008E708287758A7E6D908766848D6D85896F
:1007900071887A758E7F6F89806E937A6A976F7091
:1007A0009F6B6B9A7D5C9583618A946373A5666584
:1007B000A47765967B708D81798081877D7984822D
:1007C000826C8F856185995E71A16D669282717D63
:1007D000878069947F6F80887A7D7C896193845F4C
:1007E0008C8B6B827F866E848D5D8D886A87788422
:1007F000727F925A899353858F677E8B815DA17733
:100800005A9B805B958C6878A55C6DAF5673A2711E
:10081000728890648799489C8661947474868D7DF3
:100820005FA96572A160818C7B7B7E905F918167FF
:1008300095707F82817F6999667B92598F777B88DB
:100840006297667E9258996C7A9357986B7C915B0D
:100850009D5E839458946C7F8B619F5685955A94C6
:100860006E87786FA44A869A588F70877572A04BEE
:1008700094836791658B7677964E997572925B92A9
:10088000718185589A79797F7281807F71887E78AD
:100890007089816D84727A767F7E58A1677A7B8BAE
:1008A000745DA26272925F90668B8054A7528981B8
:1008B0005D98618D746F905C996678876D8F669096
:1008C00070847D678F7B6D7D88708D66896796618A
:1008D0007E8168965D8E7A738967926C7A87649D53
:1008E00057877E718F5E9471817D6F85856C80875F
:1008F0006C8087707C7A8666857B668E6C7E75865A
:1009000079639B5F7A8C6988688B7570915A907057
:1009100079865D936F7D7F6E807C82658E77677B45
:1009200096596FA75955C23284986E6D917F48AA27
:100930006E5E9D6B7E7A8388619E548F7E718B4F35
:10094000A26B827E61916E905F8D6E8C65907C74DF
:10095000748D6580924CA26B6C99657C7E916772F8
:100960009C3F9C756295559A647C913FAF607598E9
:1009700046A1688778599D639172796F91746F9FD2
:10098000725C947C5D9F559850A2666D96579276E6
:100990007A825EA2567A9A49A05888855AA14F90C9
:1009A0008650A55789815AA4538F7D59A457837BBC
:1009B0006F985A8E6E6F9D5691657B916197568C9C
:1009C000866597528888619C4A937665A0449F6E9D
:1009D00068A041A2686BA042A26374944BA75A829C
:1009E0008D4EA459858852A3568C8053A4568C7E74
:1009F0005D9764916D689E548F77639B5D8B746D7A
:100A0000985C8E6F70965F8C687C8D5C9466769433
:100A10005E8C657F8A5B955A828E54985D7F875D78
:100A20009D538B815F9C5389846396568B86599D19
:100A30005787856B8C569875738D57986C798A5447
:100A40009C6A7B88649163858661965787865E96EB
:100A5000508E89589A59819058955B848F539B602A
:100A6000799A538E767291559374699D458D8C5801
:100A70009A528A934B98667A994C9B656DA84898D0
:100A80006460B3448A7A6CA244A06C68AA3A9E76E9
:100A900056BA3E8C8D5A9E59A06966B43F8F925AC1
:100AA0009B57986F65B4289A9939AF6168A2618F96
:100AB00062859858926C7E97558D756F9764827D8C
:100AC0007A9059868B6B8D6381836F965B7C9A6677
:100AD000836D838A619163769B5D8571759653877B
:100AE0008264905D84885F9B4F869B4495697B8C74
:100AF00054A35A68B43F8D88609558917B6E994A8B
:100B0000978953A1567E9A548F7378905D926D8326
:100B10008C4A9D875E9664799467836E86924E9424
:100B20008067975B878C55A15F739B55956F729615
:100B300045AA6D56AA4A898C57A051839E47976E45
:100B4000808D45A96C59B73F84A0528F6B8689620E
:100B5000A15882A13A9A866190698D796A9E5187DF
:100B6000975291717692539475719B46918D5996D7
:100B70005C878F539C627997519D6371A43F9889DC
:100B8000509F637B8D6392648D8E49AC6A5FA855DC
:100B9000838E6E89599B8554A36877985298776E97
:100BA0009459947E5FA059838B619267888451A386
:100BB000646A9B4F92806394618E856094608C8B95
:100BC0004DA16C74984F92806A935A8C835F995FA1
:100BD0007893658C6F7E826298656D9C5589815A89
:100BE000A0667982609B69768261A35E6C965C9454
:100BF0006F6696688A73679E6A77876398795C9256
:100C000076807A738F708384678D79728D6787772A
:100C100066A360719A4F957B609378806C7DA0503D
:100C20007F925C917F737B789C5773A85179975D15
:100C30008B7C6793727A84698B7571945D87836B03
:100C4000916E83757699548890529D725AA76A67FF
:100C500090758E6484865F9D6D649767906A67A6C1
:100C600059789A6184846F907073966A7A896895CE
:100C70007A717E7C90678086679B6C64A5667394AE
:100C8000648B7B738C678F8053A4796391758676B0
:100C90007B92558A9C4F859571777A986C62AF5498
:100CA0006BA56D738094735BA96B63A0628C7B6989
:100CB0009C5D8A8656A36F708D6894716A996B806B
:100CC00083718C71898363967C6C8F7386826F933A
:100CD00072778E6A85867582778D78659A74718948
:100CE00072887481875D9482579B777B7678995D53
:100CF0007A9A5589866F837397666BA763748E6D36
:100D00008F66829158938161947B7F75769F5E7127
:100D1000A0607C897A806E9180539F8B57829B72F2
:100D200063968B538F945B828E8169819A646CA4E5
:100D30006A718B8968799E6961A6755D8D906C6C0E
:100D4000A3715DA176599B826F7A8E83668E8564CE
:100D50008B8762888A7E688B915C809F597D9B64BB
:100D6000738F8D5580AA556CA95C7C8878836C94B0
:100D7000775CA97160988081629882539C7E54A0B0
:100D80007F766E8A9A4C88A0558197657F878D5DA6
:100D900083A94E6EB3586AA1776F74A85D59B96480
:100DA00046B9785D80A56D4EAD7D3FA698388AAB7B
:100DB0007145A59B328EB23186A7517E9D7F589793
:100DC0009F4881B64379B260629D98437CC7395C85
:100DD000CD52609C985964BA6244C07F329CA95835
:100DE0004FC27729AE9429A696398DA36A55AB8F49
:100DF0003596B12389BC4065AA9B248CCD1E64E046
:100E00003F63A39E505CC7553EC87142A39379507F
:100E1000A3953097A4398998687A7E9C576DB64E11
:100E200068B1606696866B64B25853B96245AD7D11
:100E30005D739E8435A3952D8FA242808F88547E4A
:100E4000AC396FC23D5FB6646A7AA65057CB404852
:100E5000D34749B978685BB96F23C18321A39B4D00
:100E6000679BA21193C40E79CF3B689B905E55C3DC
:100E70005A44BA714AA07F766989984B81A4527A04
:100E80009170866393755CA16366A1617384738CB2
:100E90005B849051907C599A706E806C99497BAAC2
:100EA000357DA449807E866658BB3D54CB3F53BBFD
:100EB0005F70729B6F3BB67030B678459492714DFF
:100EC0009DA1198FB72674B35C6182A9514CC95892
:100ED0003AB975498E89884A84A9367BB5476F8CA3
:100EE000807951A4783EA17D4D94708B625BB93FAF
:100EF00063B84E6C946A8A5C8B80509B715C986A74
:100F0000787E6E9C5079A44B7E8B60897177896066
:100F10008F71659A5D788B5D916569A059778E6553
:100F200091597F9734948F31A47368835EAC4E5788
:100F3000CA345CC34F6C8983833EB37527C3753451
:100F4000AF6785655FC93F58CD3D61BF52738C78EF
:100F5000855D9C7C50A27D5B9B68818158A174510A
:100F6000A76A55A563718A6F906B6E9365748E71D5
:100F70007F6C8194418B9B3587A3447E907375650C
:100F80009D784D9B835785817D6B779858749A62C5
:100F900075807D864E998341968A4E8484894F71EF
:100FA000B53669BF4360AB656F7C94695DB05459D9
:100FB000B5575CA76E776698892BAA8928A5854EB8
:100FC0008E6F966D55BD5254BB605C9C7D73719B5A
:100FD0007541BA6E32BF7043A2846F6C82AA3778B3
:100FE000BF326FC0526E8E857C4F9A943394A7485F
:100FF0007698836565B75250BF5D53A67478697D56
:10100000A4398DA12F89A93E858D875F5EBF523C93
:10101000CD5B3BB47B5D7D85984879B04068BD5A17
:1010200058979B5153C55630CF6A2DBC7654917258
:1010300097635FB85262AE657382868B41A0933628
:1010400088A9577979AB4E50CB5341C0774F888BE5
:101050009B368DA92785BC2989A54289887E786F12
:1010600094785D9F7964907987746EA65167BF34D8
:101070006FC1307CAE4B857B808D409E9A339297BA
:10108000518D7C807562AF4D54CB3560CA2D7BAFDE
:10109000388A984A967F6A9169907D55B46449B8B8
:1010A0007047A078727A7B9C4C79B52F82AE2E8ADD
:1010B000A04E847E867A53A7764BA3765D94768481
:1010C0006E6AAE4970B13E78AF3B869E48937B59BD
:1010D000A55969AD497B9F4D96775BA463669F6B6D
:1010E000757F7E90469499328CA5427F898F5E559C
:1010F000C9463AE34134E24B49B4697D6E80A84069
:101100007FB63682A6647C77968040B17F38AA8706
:1011100055916F90734BBA6447BC6456A5677F7A4C
:1011200067A4646A9C6C80766DAD446AB83C68BB09
:10113000516796876854B46C2EBA8028A98B508367
:101140008E845C7BB6405DCD4157BD62658F7E8CE1
:10115000547FAD347EBA2D75BF3E68A8746578A4FF
:101160006954B46846B373589175965768C1365F31
:10117000D62063D6286BC0407F94648E76838661C8
:10118000A46E59B1665AA9707080859C4576C62DAB
:1011900075BA3C809850A06564AE4673B4477A9F98
:1011A000617D7F8D705AB45D48BE6648A47E6C6FC9
:1011B00086A0357CBD3261C556638B927343A78C84
:1011C000298DAF497090975B54C35A3DC65D3EC1AF
:1011D0005860A855899249977F5D9973768963A174
:1011E000694CC15345C94B55C14F6DA655878363A3
:1011F000A75768B95160AF676B8C83825D97834155
:10120000AB832CAC8D35968E61827D82856F8A731F
:10121000749A558391509A754EB0585DBB3D6CC021
:101220003768B557767E878C3DA4931CAF941AA57A
:1012300093538477A0654DC05F40B9784A908D86FE
:10124000538BAC357BBB437C8C6E954B969623A021
:10125000A7239399627777A36E3DC27421BA9A153A
:1012600097A3576F8BA1644CC07A2CAF8A34A283AA
:101270005E936A8C8950A18049A7744BA7735B9ACF
:101280007C757187993F87AE2B7EAB42888A6F92BF
:10129000488AA22E93A42C8F994A957967956C75EC
:1012A0008F6C8976749A517FA74777A4637A789078
:1012B0007944B07929BA7F31A77F5A8A7C935870D4
:1012C000B43F71B63E82995E945E85982BA1992BAE
:1012D000A48D3FA26E6A96688C7A699F5A76A45054
:1012E0007E965D8D726FA05275AB51729D78755B65
:1012F000A97928B78E17AF912F9B88637D719D7652
:1013000048B6713FB5705DA05F8C854CA76E43C237
:101310005254BC4F6D9E638F5F82A02E91B01F818F
:10132000BA4A669591694CBA7226C57C18C5762171
:10133000C26943BB595EB4597698658E7372A55DD8
:101340007A995F8789757D7398715CAE5C57B94EE9
:1013500058C24166B8427C9850977A58A76862A1F3
:1013600065798B6B926A6CA45970A0607F806E9BCC
:101370005576A54583984D937863A158779A508EFA
:101380007D5DA25970A64D7E945C8E6680963E94DB
:1013900095379293548A6F8C7B49A37C3CA87A4CF6
:1013A000A75E6EA1438A9E37938A45A06968A540CF
:1013B0008D9E2D99A7269293528D7B837A69AA627E
:1013C00050CA4853CD4A5EB55979896E98636FA962
:1013D000566EA966757C888A4096A3199FAA18A0A4
:1013E000A2279F834EAA5E6FB24A7DA94A928D4D75
:1013F000A9685CBC4168D02564DA186BDE1965D237
:101400003F59B4875374BA683FB880438F94736E62
:1014100081A8505DCC3B57D32F51DE2B55D635627A
:10142000C93171C12087B821969F33B0654ECC3841
:101430006ACB2381BA21979F3E9E7C669C5B83A2E8
:101440004B8796617F867F7C649D7446AD7634B50C
:101450007A23BA7920C4711CC8751FC07A3B99924F
:10146000756278BE3849E83538E14C3EC260699211
:101470006A9B6057C64449D53951D7355CC83F6D22
:10148000AA51917557B35953C24C5AC14F5EA670B9
:101490007076937B41B17A20B99114A498398293E4
:1014A000756A6FAE5B43CA5A2ECD6523C97226B8E2
:1014B0007936AF6B59AC47819E2FA1931EAE852A1A
:1014C000B26F50AE5172AF2A84BB197DC7216FBF76
:1014D0004A56A985447BBB3F4DD7423AD94B32D3BC
:1014E0005E31BF6451A5597C923BA78125BF781A14
:1014F000C6761CC17037B36162A94D8E8A3AB77740
:1015000027BB7B3BA07F658868977B37B18A17AD87
:10151000A10C9DAF148BAD31879852877F7E83607D
:10152000977847AC7439BA6D2FC16A35BD5B47C631
:101530003C54D3215FDB1B65CC2680A93096922BCF
:10154000AF7C2DBD7727C06C3CC05454C0436FB0F6
:101550002C89AD23969B1EA8881DB97B27C56933AE
:10156000C9533BD44447D63750D2286AC32A84A6ED
:1015700027AC8520C46927D8542BD94C43CB4C6F5A
:101580009F46987F48AA6455B55564A950878449F9
:10159000A86943C64A47CD3454D42261CD316FAADD
:1015A0004E906B5FB54063C03370BD3677A84F80F7
:1015B0008467956176984E8B8F47A0773EAE6C44DA
:1015C000B16750A56A6B8E65996755B75C4CB95386
:1015D00053BD4D55BB505AB15F5D987A75747A9B77
:1015E0005463BF404CD24B33D56325B8942586BE97
:1015F0004A42C4821CA7B00E7FD42655D95344B4A6
:10160000865676A581389FA92085CA1971DA1B54A0
:10161000E92744E93645D63D63B93A91972CB67E21
:1016200022C76D28D0583BD24B44D63E4BD6384FBC
:10163000DA3052D8325AD32D6AC82471CC207AC9F4
:10164000157AC82281AB3D8F8D509B6A74984B9060
:101650009D299DA4129DB6038EC4077ACE215ED328
:101660004047C6634AA575698D67957556B560385C
:10167000CB6925B7932C7FC03F49D1592AD46F1627
:10168000C97E1CB77E32B57446AC6B62A94D7BA88F
:101690003A899A31AA8024BE7914C37D1ABE742A6D
:1016A000BB7738AC74668E6591814FA7675BAF5886
:1016B0005FB44E62BA475DC14258CD3858CF3159F8
:1016C000D0315FC43C72A8478789599D5E69B6399D
:1016D00069D02261DE1D51E62C3FE14B33C9702AEF
:1016E000AE923991945C8E6E818E4D98922BA2A30E
:1016F0001E87BA3A59C36430B68D17A5AA0B98B0A5
:101700001C88AE2E8E9C3E938A52A46658BC4C61B7
:10171000BC357CB5208CB9098FBA148EAB2290A74A
:101720002F8C985B83758194538F8653A16F57AC30
:101730005C59B45953B85A48C3593CC4523FD04C71
:101740003DCE4E50B74D70A54D8B8545B3663DC619
:101750006125CC6E1BBF871BA99622AC7F2ABF6D6B
:1017600027D26C13D07A0EC68C15AF9833A4785854
:10177000B74C63CB3B53DA4641DB5527D16928C6CA
:101780005A47CA3A5DD01F6CD01877CA167ACD1E58
:101790006CCD2B66C1486C9A6690686BB74359D084
:1017A0004248D04F51B6556AA34D8D8E3DAB7F2C2C
:1017B000B67C27BC7D1FB88815B39A159DAA2487CF
:1017C000B34267B46D4F93A8435AD14C30D77016CB
:1017D000BF8819A6943C8B956D73819C5D57BC5A4C
:1017E00036CD6819CB7F0DB9931BA59341987473BF
:1017F000944E8D9E2697B11982C43164BC6E4B8F76
:10180000AE5146C1781AAEA50694CA0770DC1E51C7
:10181000DF3E3ED16041B06D6B90589C803DB6710B
:1018200032C16C37BA7530B3862BA39A28989B3691
:10183000A47447BE4E4FCF3456DF294FE43E3ED509
:101840005840B96B59A16C82776CAC4C5CCE414E60
:10185000C94762A75F867263B2465BCF2F53DB3006
:101860004EDB314DD83353D4305CD32A66CD33733D
:10187000B23F889640A57744BC6348C05658B949E2
:1018800068B64671AD4C838C57A26A4CBC574FBEAC
:101890004868B1348AA226A78D21BC741ECA6F196C
:1018A000C9711DCD7517CA771EC86C2ECF5433D79A
:1018B000553AD2514DCA4556D14152CE4B58BC52E1
:1018C0005EB55963AF576FA74B7BA540859E428D90
:1018D000924091955384837B7A738C7968956F6776
:1018E0009A6867A16563A5635CAB6955AD5F50C03D
:1018F0005444C9513AD15A31C86734BA6F51AA54C5
:1019000078A92D8DB41792BC0C85C81174D8205AB3
:10191000E23543DC4A40CA644EAA78737A83A94709
:101920005DD54036E05029D66133C46647B35D7358
:10193000A24389A6348D9E488E806A9B5774AD372A
:1019400077BD326DBA447399678A6871AD465DCCD4
:101950003A42DE4922E35E19D7661FCD682DC47175
:1019600045A17B7289609B8636A3982497B4158322
:10197000CE1965DE314BD85337CB6D29BF7A3AB3D8
:101980006164B7337EB92185B22693A529A091253C
:10199000B38B15B79615B0911DB78C22A79A348BCF
:1019A000A551779C69817E6DA15B5CC34C45CF607E
:1019B0002BC87917BD920BA9A61AA39332AE7B3818
:1019C000B7743BB37E469A885F8787797D758D773C
:1019D000609B794AA58330A39B1C90BD1272D41DD5
:1019E0005FD82363CE2462D72E57D6424BCE4F4AC0
:1019F000C25D629D5597793EB47737B66E4AB85747
:101A000057C54055D23B4ADB3F3BE24D2CDC581FCB
:101A1000DD6217D57710C97F1BBB7A36BA6E41BA23
:101A2000674DB65E58BC475FC63564CA2A6CC81E8F
:101A300072C92672C12677C22673CA1D6FCF216A6A
:101A4000D02265D72656DF383AE6442BDA602AC31F
:101A50006843B063669E4F86A0368CAB2281C1146A
:101A600079D01068DD1A5CD72C5ECF315ECF345A46
:101A7000C7456AAB4B79AA3F7BAA4873A74C7E9CAB
:101A80004291922CA3901BAB9C09A6AA098EC2106E
:101A900071D9234CE53D33E1582ED15D32CF513D14
:101AA000CF5C34C66D31BD7C2BB08639AF6A46C57C
:101AB0004743DC4137E04C26DB6513C98811AE95FE
:101AC00022A5873DAB7542B5694EB15460BE4361F6
:101AD000C6335AD73440E34030E14A27DD5819D4A1
:101AE0007812BA9315A798259CA52887B83072BCA0
:101AF0003B6DB4457DA52F93A61C96B41083C91CDD
:101B000071BF2E76B72B7EB92779BB3C6CAE5B6973
:101B100096816C70A06D41A899238FA3318D983761
:101B2000919046957D54A3684EB65D46BA5A4EBC18
:101B30005549C25846C04C55C63E4DD6493ECB5A73
:101B400049B06D57A4676BA25873A94775B1377C2C
:101B5000B6217DC71765DF2542E84B22D8740EBE3B
:101B60009318A3A52289BD2C67D24057C94D5BC1EC
:101B70004967BF3D65CE3E5CCD3E50CC4252CF352D
:101B80005DD12C59DA2A4FE62E3EE6492BD56C283A
:101B9000BE8527AB922CAB822AC96623D46424CBA2
:101BA0006241BA5860AA4982A343918552A66357FD
:101BB000C14E4EC4475EBD3571C02D76B33488909A
:101BC0004A9F645ABA3364D7175EE4184AEB31313E
:101BD000E75417D47B0FC28613BF900AB2A40698AD
:101BE000BF1477D22260D53B5EBD4277AA3495A25E
:101BF000269F9C25A29B2595AF217FC62369D32BC9
:101C000056D9393DDD5525D17B14B89A119FB412B0
:101C100082C52C6CBC5C569F984A62C84F3ACC6D0A
:101C20001FBC921194C0136CDD2646E43E3ED84D95
:101C300042C74C5AC0416AB84176AA4A8B874BA921
:101C40006738C76720CE7419BE8910AAA90F86CB42
:101C5000195EDA3542D5503DCD4C45D33A43DE3995
:101C600036E65025D76717CB751AC9731ACA72158D
:101C7000C58A16A2AF2571CD3B41D06627C2821519
:101C8000B1A50793C40A79D4135CE6323DDC5C2B22
:101C9000C38813AAB0097ED71B5CD54351BC654BE2
:101CA000A9844588AB3871C1315FDB2F3BE0591FF8
:101CB000BE8A1EA1A8158FBF1276CE265DD14243E3
:101CC000D0582FC96E20CA681BD36E11C98B0AA8C1
:101CD000AD1280D1185BDF3047D6503AC47E2C97C6
:101CE000B3276ED2264DE23D2BDE641FC57F14B3B1
:101CF0009C1395BF1578CC1D67D32758D33354D583
:101D00003B45DA462CDE6022C98119ACA41881C893
:101D10002363D83542DB5B27BF921A91C31A5FDD7C
:101D20003636E05A1ECA7D22B8812CB47D30B37B92
:101D300040A8775A9676846F66AD603BBE7D1AAB3D
:101D4000AA087DD3214DD85530B88E238EB529767B
:101D5000BF366CB15F6E87867C579D8631A99A1419
:101D600095C2145FE63830DD6E11B8A11F71CA56F6
:101D70003CB0A01F81D42741E4611EB6A11E74CBE4
:101D80004740C77623ACA11784CC1A57E83A24E021
:101D90006F14BB9A1496BC1A6EDC274EE13E2EE0FF
:101DA0006F14B3AC1778D12A49DF5024D57616BE0C
:101DB0008C11A9B10D7FD21960D92F4DD34B41BDE4
:101DC0007E467DB2603CB5921996BE1875CD2B6CDF
:101DD000BB376BC1315CDA373DE4442CE05821CE8F
:101DE0007A16B1A81282CD215BDB4936CA842496CB
:101DF000B92265DB3D2BDA7A0DA3BC1D64D54A31CF
:101E0000C188218BB9345FCA572CBA9A0F82D11D71
:101E100052E14621CD8F1591B23075B04D61AF6B57
:101E20004F9B9B3376CB2F43DE5618CF8B089FBD3D
:101E30000D6EDB2846E54C25D28018A1B2226BD06E
:101E40004047CF712CA8A93168CE5928B8A0178A6D
:101E5000C61C5FDD4330C881309AA03985B23D6F22
:101E6000B45B798B6F94725CAA7845A883369C9B8F
:101E70002F83AC56579AA2316BD8273FEE461CD021
:101E800089267FC44E3DBF8B1194CE104DED462C5C
:101E9000CA7527AC932D8DA551798D7B876479A761
:101EA0004F64C1414DD05734B6844087A4604CB1D3
:101EB0008026A9A21A92A241986C5AB35063B73DEA
:101EC0006FBB386BB54672A5467EB23865CB384FCE
:101ED000D44134DB691EA9AA385BC37720A1B918A5
:101EE00065E23F34CD89208FC4275FDA4D33CF8B35
:101EF0001A91D12549E75A15CAA60484DD2B4BD681
:101F00006F27ABAC1775DD2C58CB486AB24974B556
:101F10004B76A4617D8A76856E83974D79B9396158
:101F2000D13747E13E24DF6F13AFAF166FD73E3294
:101F3000CD871D89C83B45CE7320A7B31E69D63F08
:101F400040D07725A8B12266DC472DD3840AA6C8E5
:101F50000D5FEF4434C98C2291C4225BE44146C832
:101F6000595AB55562BD5563AD667191767F777CE0
:101F7000995669BE4B48CF542DDC6209CC9909892A
:101F8000D42448DF5D17C19F1D71CE5C37ACA21C05
:101F90007CD52A45DC5F2CB19D2E6ECE4931D07F99
:101FA00012A6B31676D23442DC6029BF8319B2A2DE
:101FB000128AC62462D74036DB710FBCA6098BD9C2
:101FC000154BF15117CD9E0A8DD22A4DD9692AA7FA
:101FD000A82F67D1522BC296198AC1255CD84E2DE5
:101FE000C3882897B02571CE3843CD693EA2815071
:101FF000977660996E6D9B517FA73E6AB95555AE35
:102000006D509A8C447FAF515BAC7D507AA9674785
:10201000A48E2992B61C65DD3840CB643FAB8B376C
:1020200089AE406CBB4366C03B58CC5043B970533B
:102030009181836764B55A44C2652DC27B19B498F7
:10204000159EB7097EDE1D3BEA621DB7AA0F7DE132
:102050002238EE5E1AC49E0F8BD01E51E74F25C466
:102060009D1877DE2D31EE650FC5981E81C24A425C
:10207000C2861C9FB8265CD0652FA5B32069E03BC3
:102080002FDC7B1597C52A4ED5631EBE9E167CCFCE
:102090003D40C28A1C8CCE1D48E55628C6792AAD23
:1020A000912C8DA858768790794A97A02A7BCD2BC2
:1020B0004CD95A1BC0A5057FE21245F05110CA9EAB
:1020C0000888D9174AE95A17BEA41779D42E40E2D6
:1020D0006B10ACB52A63CE4B34CC80209BA44676E3
:1020E000A17C4388BF3A4EC05E5AA37A726186AD26
:1020F0003F63B8326BC63262B93672C92762C02CF0
:102100006DCE2273B8188AC30A85BA169CA529AC6D
:102110006A4ED14142D33F57CE48629E5295933E7C
:10212000918353A27955A7555ECB4C3CC55754B506
:102130005D67994190A5238CA231919E379C852E95
:10214000AD9A178AB33D73A95E58A1974075AB5CF1
:102150007590866853BB7528B07A37A7844C985F12
:1021600072B14A60AC4B7AA54A838B38A297139C14
:10217000972D9C98478C6B849C3D908F31A5962C15
:10218000A97E33B68E26A28C3CA38C46A26E60BA82
:102190005454B6506EB14F739D468BA52F83A34602
:1021A0008A9C4A977455B7663BBA694FB266639F7B
:1021B0004983B82379B82C87AF30938246BB5E360B
:1021C000C45948CA5F49BC4F4FD74245C74C63B852
:1021D0004E798171A95B61BB3563D73C49CF424DD4
:1021E000D75047C34154DE3841D3484ECF4D5AB63D
:1021F0004377C12B6FC23F8A9F47908B6696785872
:10220000939E587C905B948752A5693EB8822EB10C
:102210006E28BE861FB38319A9AB1889A42C929E81
:102220003A968339A59841878D49969A3B93942C89
:1022300098B81D72BF2E74C03876A93984BB236F3D
:10224000C82C74C33782913AAC8E1EAA882BB67BF9
:1022500037B65657CE3951C64367BE4573A53C863F
:10226000B5247CB3328FA9309B7849C45738D350FA
:1022700040D6503DD3483CDB5B2AC56F3CBC714225
:10228000B46053C35148C25253BD5753B84E55CF93
:102290003E40D04650CB4E5E966E956F5BB14E6120
:1022A000C54858C2415BC94F4CB65859BE515ABD7A
:1022B0004450D24F38CA5E3FC76146C04B4FD83CEE
:1022C00046D93E55CA4A5AA97A6F79896F80986370
:1022D0007681789B5F6DAC406EC64355C24854CB47
:1022E0004E44C8503CDA5F24C96B32C56E41B564B8
:1022F00044CB5C34C26450B7636A8472A45F59BD36
:102300003960DA2B55D92856DD3A3ED6473ADE53A6
:102310002DD2572CC3843496A12C7ACD265ED12A97
:1023200062D24452C44E39D9631ED65A1DDE681F8C
:10233000CC6731B98A408BB13756D9532FC86A3B25
:10234000AE884A938953958858898062957C6393B7
:102350007B5A95894F8D88508D945D7D8E63739ED9
:10236000645CAB5E53B6614FB15E5AA66F668D8BEF
:10237000675DAB822D959B3D8A9C53887873995EEF
:102380006D9F5377A95964AC594ABE6A37B07A3BFE
:102390009D944988934886AF337BA52988AE3586BE
:1023A0009546879D5971A36048B985329C933599AC
:1023B0009F487CA84766C95051B65262B467609E78
:1023C0006A6AA1774FA27547A68C4494855392847C
:1023D00069848074788F7C6D876F6DA66561A8664F
:1023E00042B18F219CA01C91AF2E7FAE3C65C35C97
:1023F00047BE5F3CC66B3BBF6646BC6C51AB7C497D
:1024000087B54E5FBE5551BB6B4FA48A3C8BBA3B20
:102410006BB73C68C2535DB25B4FC26632C469237E
:10242000C08A1AAF991F8FB93463C84D33D2801E4A
:10243000A8A12C87B35266AE6356BE694BB26555F0
:10244000AD74569D864F959A3890A12989BC2B77FB
:10245000BE3859C5673EB68B1A9DB81D75C12D7221
:10246000BF565FAA635BB96255B15451C8623CBEA6
:102470007A27A7B0157BCA0E6EE12556D73E4ACD06
:10248000733AA7A12981CF2E59D5375DC46453A8CB
:10249000893692B83172BF3071CA4A5ABB5F3BC3AA
:1024A0007F21B68C17ABA12C919C457BA9615CA3C5
:1024B000843D9EA03C77AF4C74A36869937770917C
:1024C0007077925176B84756C64B47D15F31B9897C
:1024D0002387CC3046D34D3FCC633AB66F3CB187AF
:1024E0003193974B9686618C5B8BA13383A91C86B5
:1024F000C42177BC2E6AC15C51AF7E33A6A730855C
:10250000AE3387AB5271A46061AF724AAA772FB421
:10251000922F948F4E898972817181797A8E786930
:102520008B64917E589B7A43A08F4A86A1485DC5F3
:10253000623CBA682BC5801DB78124ACA12B8EAD3F
:102540002D5EE14135D74E37CF7132B08C2D93BB24
:102550002672C32876C73B67BD4C4EC17435AD8427
:102560002FA39C3993994278B05858B75A46B978F6
:102570003BAA7F399F90458FA14266C85A43BF61ED
:102580003AB57E4994936654A893308C9B37929FBA
:102590004A83955B7D9B5B6AB15C3EC07338AB83BD
:1025A000379C954F7A997161809B69699F506FAE96
:1025B0005460B85257AC7A528F9C3C61CF582EC9A8
:1025C000692CBE8627A1A8118DCF1966D1346CBBAA
:1025D0005675A05A76AA6269A06072A8626CA35967
:1025E00074AB5A62B16241AD982C82AE4270BB4D61
:1025F00061B16643AF8F3085B23A7BB152709D6452
:1026000073956D83825A8C9E597493687399726422
:1026100088905E5ABF6824AF902F989B4F758D931A
:102620006868AD5744BF8827A38F2999AF2584BA1E
:102630001E70DC3553C74E5CB8705C998E567DB009
:102640005F60A2717893787A81789279688E9948E0
:102650005FCC5E23C3831CB590348B986F7182A0CE
:102660005956BA7C2EA19B42869D5E7C7595894BFE
:1026700093903AA094359D8A2DA2A91C959F2895E8
:10268000A43690A63476C44651C44E43C66D3AB6BD
:10269000733BA3953884B5365CD24B3ECD5E2FB8E4
:1026A0008A398DAB424FCE7124BA8D149AC12766F8
:1026B000CD4636D6791CB0A5128CCF225DD93F42CB
:1026C000D36B2EB2A01E84C73356CF4C52B96C5078
:1026D000A578579A7768A15E63AD675EAC665FA127
:1026E0007B5C899E5E50B181399597378FA04B7581
:1026F0009B6065A66A58A86648B96447B75B4EB048
:1027000068609376826B66B26435B8703AB07B3A93
:10271000AA704DAC67569E6866A26B6798626CA7FC
:102720005F52B5652DC38318A79F288AB14A5CAB59
:10273000755E8F8A75667EB04E50BF5A53B5695D1F
:10274000808F835D89993385BD3369BC4E54B974DC
:1027500040A1942290BC2A73B9366EB361609D8704
:102760004093A64579AB347AB75262AF5C58AF79E3
:102770004599A1296CCD4056C24E56B16C5E9B7EE8
:102780006E798E88706E88826F898462986A5BB178
:102790005E58B24E5EB3645FA26F5E938C5F7CA4A2
:1027A000466BB6585DAC5F669A6F74926D798C7E9D
:1027B000728C854E82AC5462B75755B66A46A98D65
:1027C000486BB56F439E8640A1943A929C3A8AA08A
:1027D00042869D3E81A65C719A755D968E5381A45A
:1027E0003E6CC4504FBE5E4DB17A4B95996058A86F
:1027F0008F4183A64C76A95871A25B6BAE556BB323
:102800004467B75561B45759B56F55978C5F5DAE46
:102810007253A87D4F9A796582867E7A807C878103
:10282000768166889C4D76B03F73B44A6CB5466538
:10283000BC5C5AAD5B5CB46F43AF892C98BB236E14
:10284000C82B5FE04144D36526C9931FA1A5209002
:10285000C3366AC8464ED96633C97026C09C1E9BD3
:10286000B72371DE3E46D86422C89A1795C02274F9
:10287000C65B53A7994B68C6673EBD753BA78E5094
:102880009096616BA276549E8434A19C3692A539B1
:102890007FA95075A25C69AB6961A4733AAD8B2BBB
:1028A0009E9B2897A1408994667475A27954957E61
:1028B0005B94895E8E8F507CA84E76A04A7EA75A84
:1028C000749468689C7E5B928F3490B22C7FB03D8C
:1028D00079A9597296765F8F945982983F84AD4456
:1028E0006FB34B57C16043AB992873D03A51D1476E
:1028F00048BB724E998B6A5C9B9C437DAA3D78B223
:102900005D60A676539795497CAE3D59CE4D49BC46
:102910005D4FAB745E8B8578767F837F8168729B19
:102920007365996E5E9A7C58918D4379B7505CAC13
:102930005C5EA46D5F9A7B4E9D854D9B774E9E801D
:102940005B8F85706497814F918C309A9E388C98FC
:1029500042879A5A7C93717772908A5782915789ED
:10296000965F8096557CA54F71B33C67C84D4EC5A8
:102970005C4CB07E508F9B664AAC943585AC3E7FF4
:10298000A953789A5E739E62749E526FA86069A57F
:102990005D6AA6715F9291605BAC77489D884197B4
:1029A000915C71957B737C8287777F7D5898874D8A
:1029B000938F4A8F91588493705691A2516CA74F70
:1029C0006CAD615EA2814A8B9D54709D5F7B926A63
:1029D0007C827484797C857F7D6286A04678AC4851
:1029E00080A3557495727A807F8A814A9F9542832D
:1029F000A53E8AA15376937174868A73749D50693B
:102A0000BF4F54BD5B5BB06D5B9E8268818D6E7CF9
:102A10009B6867A3726F947D767D838871759E6EC7
:102A200048B08F2A91B13384AE526F9D796E878BF7
:102A3000757C89807A738A915682A44E76A55C73E0
:102A40009F6B718D876E6BA67541A48A3EA48945E4
:102A50009D78659F626FA64A7AAD5D66A083587CBB
:102A6000AE5B55B35F4EB27451A57C5194964D7BCD
:102A7000AC574EB9723BAF7E3EA088558A8C6D7BB9
:102A80008C79748C706CA56D55A77A5F97826D8177
:102A90008185777593814F91A93D70BD4A63B36578
:102AA0005D99836C7F8F7B7786867A7480995F6D62
:102AB000AD5D5EA96D639B776C858B7A6496923C65
:102AC00087AB3E87A645858B5E98755CAB5B5EB039
:102AD00072579B89616BA875469E863AA49248916D
:102AE000934F7EAA545FB17337A59D3189AA3B7D70
:102AF000A85D6D987F698A876D838454A0873D9B0C
:102B0000924793955A7F8F767986817A7C88817CEB
:102B1000758C8360928B588C8B61848B70817E7EE8
:102B2000876F80976B6F917E6E88868065859F60CA
:102B30006EA55C68A6785A91964C74B55D57A171E4
:102B4000659675738B5B8C994C7AB3435BC36D4010
:102B5000A3804FA2834F9B863BA99637949C4687C0
:102B6000AC4E74AC714DA5944983A04F86A45B74A0
:102B7000A25573AC5667B25E4CB08838929F3C7FCA
:102B8000A2606F95807162A5844392944A8BA05095
:102B90007F9C6379966676A1565CC05B46BF6646AD
:102BA000B173499E805D83946F739C5F5ABC624091
:102BB000B47547A08E4989A54E5ABD6548B16D4E82
:102BC000A482598C91705E9A89508C99398AAC4F45
:102BD00068B16752A487498CA84B5FB96748B17741
:102BE0003FA18C4E90946B6A8C9761739A5C729F34
:102BF00072679A71619D785E938E4B76AD5965AB25
:102C0000625CA273609B7B6881837B80827B718224
:102C10008A78778C7E6687886C7C976662949754F6
:102C200074AC545FB07D4F89A55C44BA87299B9CE6
:102C3000338AAC5070A673579895537BAF4669BEE4
:102C4000634AB57547A38F4982A36A6086A960521B
:102C5000A8774AA38842988A4795954C8B934B8ACC
:102C60009D5D759B725F9A8E577AAF4E57BD693ADC
:102C7000B07F3DA18C5287936C7C827D8582777278
:102C800089857A748E8E5D7A9F5D67B16144A89064
:102C90003A87B0485BB176578DA15154C46D34B8B2
:102CA000852A9BA2437EA772627DA67252A97C3BB5
:102CB0009AA6407BB15859AB874A84AF5051BD7B2F
:102CC00033A6933492A44B789F627197726D9A7574
:102CD00044A98C2C9EA03488A5536F9E776686915C
:102CE0006E739973519F8E48839F507C9A5F749F37
:102CF0006552AD784BA279439E924D7EA1674CA45C
:102D0000894485AA3573BC5A4CAD7F4086B4495A74
:102D1000BD6D2CAE982194B02A7DB557689C807407
:102D2000718B935C83905981A2646BA3714E9F8CCD
:102D30004F83A54B68B56F52988D4780A85A61A103
:102D4000855566BA6E3A9E91398DAD3B71B0565B32
:102D5000B36053B06349AF7C4E908C5B7B9A6968DB
:102D6000918E665FA77649A08C408E9B50789E68B6
:102D700068947B6F85867F607DA44A6DB54D60AB9E
:102D80006A61947E677F91737490744FAA82349CB9
:102D9000983C919A527A9A71758C7C807870957E65
:102DA0006B907669987D638D8E5C75A56366A36C68
:102DB00058988D5F7C8E855879A8555CBA603DAA7D
:102DC0008E3E82A3565EAD774D96A2485DB86D3CAF
:102DD000AB873395A64074A76361998264809F5640
:102DE00057BE6734B387329F974886985F77966F50
:102DF000807B6AA0765D957567A3685DAD6156AE10
:102E00006B4FAA76459D8C56818D786B779F6F5C52
:102E10009D7C4992A04B72AD5C5CA27F5C849776EE
:102E200054939E3F7BB84163B55F59A2786D788516
:102E3000906B709B5F6EA36F57A0874B83A8586100
:102E4000AC7141A19E327FBB396ABB5E6798777ACD
:102E5000717F9A676AA76064A47659987D648C8CA8
:102E60006C7E8A74906268B55855BB5B53B66E4BE6
:102E7000988C63818D767A907060A37E4D8B975C81
:102E8000858F69867E6E8B7B6D9676599593587E7D
:102E900094667B976C708E89676CA07A569184617A
:102EA000918567827F88826D7D946F5C9C8F3F8B5C
:102EB0009F4885A356729380727B916967A4715C69
:102EC0009D764C9997487DA44D74A861649E88575F
:102ED00077A76759AA6B4AA08F577AA17C4799A018
:102EE000397ABF3660C96140B3903782B44F5CB560
:102EF0007D477BBE4C53C85C38B58541979463755C
:102F00008C8E7D709670669F84599290587A9D75CC
:102F10006B8B86845E86A05773A55971A371648FED
:102F20008369848D717B897A7B72948158908D56E8
:102F30008C8F667B8A7A758682797E8E6F639B7FA3
:102F400050908F52859962739E61659E6F69957FDF
:102F500058859F65679A864C7DAB5859B26E4698E6
:102F60009F4A70AF634EA590467AAD6A449EA131E8
:102F70007CC13D60C05B52A77E5B849374718B9271
:102F80005371BB5952B46F519C8C577C9D686B90A8
:102F9000897177986B5AAB7346A28B448E9A5B7992
:102FA0009D695CA18B517FA9406CC14B50C56440A9
:102FB000B1854A8B966D61949A576CB5624FA9861C
:102FC000498BA35A57AD864689AE445FBA694FA272
:102FD000864C7DA95B5BAC813C8AB4446AB25A6181
:102FE000A17D5B8F965A67A776589E794D99896324
:102FF000818C6C78906D768F737B8266918B548414
:103000008D6A89827380768880708290616AA771E8
:1030100059987C5A9B81599385588E8A5B819F5A17
:1030200068A27A5C8C965271A7655F9E7E75618EF0
:10303000974D7CA54977AF5A62A4795885946375FA
:103040009C626FA06D6B907D6F83877078927476B1
:103050007B749772599B775C9D7D5F8E7A728B7AB9
:103060007390795C91994F7CA0507D9D64768F7CA4
:103070007D69898D5C7B98647697756C8B7E6A8B95
:103080008169878E6C69A1834890A4457FA8566C9E
:10309000A276678F85727F867E817E7B8E6A6AA725
:1030A0006C55A678589C825B8D8E5E77A26F609778
:1030B0008E5776A56C5D9C8B5078A9645BA08B5A6B
:1030C0006AAB765394984476B75254B76F49A58843
:1030D00051829B77657BA95F5DB06E4EA6884B924F
:1030E0009A5C75A07670878D84607AA76364A471FA
:1030F0005F908E617C93717A87807B7A8D7F559902
:103100009C3984AD4B7EA165719183727D8B7B7CF4
:103110008A7B80816E947A569A885790945A7AA1C5
:103120006A68977863997F5F95944079BF3F59C2E9
:103130005357B3685D9B8268818C7B7D897B7380EC
:10314000927972868775848477807E7C867D728989
:103150008B6669AD6D4DA57E5296876285887377C3
:103160008B83757B8A885D6DBA5748BA6B44AC8097
:103170004798875B8C8E67857F698E8C5B899647C5
:103180007EAF545DB66B41A29A4671B8604AA68A7A
:10319000577F92826375A85D5EA47E4A8B9D5475AD
:1031A000A1726D7A927B658B946E668E926278992D
:1031B0005C71A06C679376708B826F83847F76637B
:1031C0009D774B998A4F88936178937A69808F7144
:1031D0006B9E6859A28551869E5168AB6C5A978A3E
:1031E000636A9A885383A0486FAD5967A1786C7160
:1031F000987D588C944786A35175A0686B8C867017
:10320000778C856D6EA1705D9C7E59918D5F7E8FF0
:10321000737885817C7E7F827D78897E70818C77D2
:103220006F8A846681916B7B827D887673916572EB
:103230009F6A60998D5276AB5A5BAF6452A57E54FB
:103240008F8A69798E787284897D6B79A36260AF89
:10325000675BA5775C8F8D7077828D7078936276CF
:10326000A1666A9A756C8E836B7F887778857A7A87
:103270008B75689383608D855B8A87697F8C737A91
:10328000837F7F80876C73947B6A8F83598A975E74
:1032900077A162639C845E879465649F805D839957
:1032A0006D5AA08E4587A74672AE5E66A07A72758B
:1032B000908C61859058899660799A6B6E9B716D40
:1032C000927E738C6578A4596DA3597AA066709428
:1032D00076718C8079878069869C5771A260769D13
:1032E0006870937A738684727D90786B9385598326
:1032F0009B636DA56364A37560948273708E8E600A
:1033000075AC565CAA7B4D8F9B5272AA65609D83FB
:103310007373898D6277A95A59B072539B8D557C0E
:103320009F64719976778F60809F5571A65D759EB9
:1033300068758F78738A816F848A746F8C925E74DB
:103340009E666C9F7063997E628D8A667B9A6660CA
:10335000A47759968B69768A867A70888E6669A278
:103360007C559190478A9A4D7F99667B89758879BB
:1033700075927961948E567C9B5F72A16B6E927D83
:10338000738682768181728E7E618E84708C787471
:1033900085817B807D827E75828B77728585777F44
:1033A000837A777E877F747E8B7F647B9E69669746
:1033B0007668908560888B687E8D707B8976768A4A
:1033C0007B76877E76827D81807B817C77877E7924
:1033D00084807C76818D7279837A83807783827D05
:1033E0007A7C8D737590776C8D83748088776A8F03
:1033F0008B627F9E625CA97F4A929E4873AD616535
:10340000A0757289708C86688B89588F9559809EBB
:103410006275A26E6A957D6D8C835C8C9D5477A5D8
:10342000657499756F8E846E828A757E8E756B93C6
:10343000875E819A5A73A76161A675519D89508FE5
:10344000914C8B995E7B947A817282946273A45FB3
:1034500062AA6F609D7E5E8299686E977B6F8A7E9E
:103460007B85827276927C678C866A8884717F877E
:10347000777A8B786E89896B7C8A7385856F867D78
:103480006A8D816A8A865D83956874927B737D8874
:103490008072838E6E6C9C76698C857675828A7953
:1034A00070878971659D83518C9B4E7AA75D699A5F
:1034B000796A88817880837D747E8D7A6C888E604D
:1034C0007A9B64699A79747886876B7C97666F9D1E
:1034D0006E6494806589886F8284778783628A8A24
:1034E00067848C657F92697393776F8C7C72868317
:1034F000767C8A796A8F8C5E7A956F758F78738700
:1035000082747A8779788A7A7A8574818E697591DE
:1035100072778B78807C7E877979887C75858473D7
:103520007F8D70738F7B7482827C7B8184797E84B3
:10353000797D8B6E709E6C61A66F52A2804F9295C2
:10354000567C9E68759877618B8E7474888F6E67D1
:103550009D7F5F8C915C7AA1676F957C6E86867685
:103560007F867A7E8A6A7E946579956E7A8C777585
:103570008484797A867E788185777C8978718C815C
:10358000718182798082827380886F7F8D737D7F65
:103590007D847B7D84817C70917F678C8366898745
:1035A0006B8687737F89747C89787988777A8B7941
:1035B00078877C7A85807C80787E8979758C737138
:1035C00092766E8F7C6F8686747A897B7889806C20
:1035D000878C607D9965759870749079748B7D7413
:1035E000888272818A71779078718B7E74888072FC
:1035F00082877974828D72798C717B8E7676877FE3
:103600007980877779887B798671858270877F73E7
:103610008882767E83807D7F80807F7F817A7C88B0
:103620007C7882817F817E7D817C7B857C7A8A74B7
:10363000758A85747B878174798E77728D776D92A8
:103640008467818D71788C787984817A82886F74AF
:10365000996C6B9A766C90807184887878887F7C7E
:10366000837D80807B877E75858074858373828669
:103670006E7E8F6F768F70798D787984807B808372
:103680007D7D7E82896F74986D6E97736F8E817069
:10369000818A76798A7C7B86797B8C7A7687817938
:1036A00082847D7D7F8180807E7D847F7A857E712E
:1036B0008A876C7C91786B8989697F916970997828
:1036C000678C84707F877C7980847D7A847F7A831D
:1036D0007E79857E7B837C7D817E7C80817F8080FE
:1036E0007F7E7C7F84777A887C78827F7F7F7D7EF7
:1036F00082807A7E867B72868671788E786F8C81E6
:103700006E848771818A7274907C6D8C7E6E8984E0
:103710007181857880857B7D857E7C81837E7684C2
:10372000866F81886F818B727B8A777A857A8082B7
:10373000768286727E8A727C8A737C8E73758E79AD
:1037400075897A7B88787D827F827C7B8679798A8D
:103750007B74888175838473808878798683747E8E
:103760008A767B8A767D88767E8979788583767F6E
:1037700085747F8D72768E79718982718187737D70
:10378000897979858073818D70788F767A8B7A7953
:1037900086807E7E80857B7C877E738587707F8C2C
:1037A000737A8D78768A7D7B857A7B897A778C7C33
:1037B0006C8B84728485787E887C7884837980861B
:1037C0007C7C867F768489747B887A7B877F73850F
:1037D00088727B8C7875897F778582748185768005
:1037E000837783827781827D7F7A83817780837CF0
:1037F0007F7A8084787C887F767E887677897C75EE
:103800008682727F8976788B7B71898370828579D5
:1038100080827A8082798186767B8A7576917871CA
:1038200089807782847B7A85807780867B7A867FA1
:103830007585837482866F8188767D857B7D8281A4
:103840007F7C7D83817B7C84817882817583867493
:103850007D8B7778897C778680778484737F8A7480
:103860007A89767A8C77738C7B75887D758781767B
:10387000848378817F7D827D7F817C80807F7E7F55
:1038800081817C80827B7F837D7D83797E8A79774D
:10389000877F768684767F867B7B83817A7E857D33
:1038A0007C847F778187747D89747C887A7A847F31
:1038B0007C8081807C7E81817D7C8283798083761F
:1038C0007F88767A8B7A76887F7683827781867412
:1038D0007C8B76778978778C7A718A7E738780740F
:1038E000858375828479807F7E837C7E837B8081E3
:1038F0007F7E7F81817C80827B7E847E7C847A7BDC
:103900008A7C768582778386777C877D7A83817BC4
:103910007E837E7D837F797E8977778A7B77877FB9
:103920007880847C7D837E7E827E7F817E7F817EA7
:103930007E837B7C867C79857E7A847F7B827F7E9A
:10394000827A7F857A7D847B7F837B7F837C7E8187
:103950007D80817C80817E80807D8183787C897977
:1039600078887E758384787D857E7B837F7C827F6B
:103970007D817F7F817D80847D7A82837A7F857956
:103980007B867F7A83827A7C877D7983817B818045
:103990007E7F80817C7E857C7A857F788383787F3B
:1039A00086797A887C768285797B867E7883837A2D
:1039B0007F817D7E837D7D847D7B85807881807B1A
:1039C000847E7B857F7A83807C82807C7F81817C02
:1039D0007E837E7D80808080807E7D81827A7E85F0
:1039E000797B887C7886817980847B7D837E7B82ED
:1039F0007F7B827F7E837C7B857E788581758284D8
:103A0000797D857E7C7F827E7C8382767E887B79D1
:103A1000857F788283797E857D7A83817B7F827DB5
:103A20007E837F7A80827B7E837C7E837E7D8181A4
:103A30007B7F837C7E837B7D857D7D827F817F7E96
:103A4000827D7D857D7A84817A80847D7D837F7C83
:103A5000837F7E827F7E827F7E817F7C81827C7F6E
:103A6000837D7D847F7A80827B7F817E7F817F7E64
:103A7000827D7C837F7982837A7D857D7C857C7A5B
:103A8000867E79857E7A847F7883817A82807C8243
:103A90007E7E837A7E847A7E847A7C867D7D847E37
:103AA0007D827E7E827C7F84797C867A7A867F772F
:103AB00081847B7D837E7A81847979877E76838415
:103AC000777D867C7B83807B81817B80827B7E830C
:103AD0007B7E847D7C827E7B83817C80817E8181F4
:103AE0007E7F808080807E7F817D7D837E798282E3
:103AF000778185787F847B7D837E7E807D7F817DDD
:103B000080807D7F837D7D837E7D817F7E80807FC1
:103B10007D80817A7F847B7E837D7B837F7B827FB8
:103B20007B81817D7D827F7B82807A8085797B87A6
:103B30007D788285797B877D778580788283777FA2
:103B400086797A867E7A837F7C807F807F7E818182
:103B50007B7F847D7B847F7B80837C7D837D7C8376
:103B60007E7D82807C81817C81817D80827E7D8161
:103B7000807F807E80837F7E837D7D857E7D837E4A
:103B80007E837E7F827F82817B82837A81837A803B
:103B9000837D808080827E7E847E7C847F7B838127
:103BA0007B82807B80837C7D847F7D80827F7E8121
:103BB000807C81827C80827B7D847F7C81817F7D13
:103BC00082817C7F837C7E827E7E80817E7F817EFF
:103BD0007F817E7F817F7F817F7E817E7E827E7DF1
:103BE000837E7B82817C7F837E7C83807A82827AE3
:103BF0008281788283797E857B7B867E78857F76DD
:103C00008484778184797F837E7E81807D7F8280BA
:103C10007C80837B7E847C7E837E7D81827F7E81AF
:103C20007F7E82817E7F80817D7E847D7D847C7E9F
:103C3000847E7D7F81807C81817B80837C7D82818D
:103C40007D7E837E7C83807B81817E807F7F808080
:103C5000808080817F7F817F80807E80807D7F816A
:103C60007E7F817F7E80817F80807D7E847E7A845E
:103C7000807882847A7E857F7B80857E7B85807953
:103C800081847B7D84807A81847A7E847B7D847C40
:103C90007E847C7D837C7D847D7D847D7B83817A35
:103CA00080827B80837C7E837F7F7E81817D80811B
:103CB0007D7F7F81807D807F7E847D7C847E7B8311
:103CC000807B80837A7F857A7C857D7C847E7C8204
:103CD000807D80817C7D84807C81817C80817E7FF1
:103CE000817F80817D7E837D7C837F7B837F7C83DE
:103CF0007F7D827F817F7D837F7B82817D81837DCC
:103D00007D82807E7F7E827E7D83807A82817C81BF
:103D1000817D80817E80807C82807A81837A7E86AC
:103D20007A7C857C7C847E7D827E7F817D80807EA6
:103D300080817E7F817F7D817F7C80827C7E837C91
:103D40007C837F7C80827D7C827F7C82817C808181
:103D50007F7F80817D7C82827A7C877C788681757A
:103D60008186757B897B778682778085797C857E65
:103D70007B82827C7D847F7B81827C7E837F7C8151
:103D8000827C7E827F7E81807F7E7F827D7C837F3E
:103D90007B82807C81817C7F827D7F817C7F817E34
:103DA000827F7C827F7D817F7E80807F7E80827D1E
:103DB0007D82807D7F837C7B847F7A81837B7D8312
:103DC0007E7C837F7B81817D7F827F7B80837A7F06
:103DD00085797E83798084797E857C7A847F7983F6
:103DE000817980827C7E817F7D81817B81827C7FE5
:103DF000817D7F817E7E80807F7F7F81807D8080CE
:103E00007D81817C7F837E7D80827F7C80807D81BF
:103E1000817B7E837E7C82817C7E827C7E847E7AB6
:103E200081827B7D857E7A80837B7C857E7983829F
:103E3000787F867B798580788284787C877B78869A
:103E4000807983817980847B7D837D7C83807A8186
:103E500084787C887D778482778285797E847C7F74
:103E6000837E7E83807C80827C80817C817E7D825B
:103E70007E7E827D7E817F80807E80807E80827E4D
:103E80007D81827D7E81817D7E847D7A867F78833F
:103E9000837980837B7F837D7F847B7D867A7C852D
:103EA0007C7D847D7E817F7F8180807F807F7F801D
:103EB0007F7F807F7F807F7E817F7E817F7E817F0D
:103EC0007E817F7F817F807F7F817E7F827D7D82FB
:103ED000817C7F847B7C847E7D817F7F807F817FEE
:103EE0007D82807B81837C7D11241FBECFEFD8E053
:103EF000DEBFCDBF11E0A0E0B1E0ECE7F7E402C027
:103F000005900D92A630B107D9F721E0A6E0B1E007
:103F100001C01D92AF30B207E1F70E9400210C945E
:103F2000BC230C940000ECE7F0E080818064808387
:103F3000EAE7F0E08081846880830895ECE7F0E0B0
:103F40009081907F90839081892B8083EAE7F0E0D5
:103F5000808180648083808184FFFDCF80917800A0
:103F600090917900089580E00E949E1FBC01990FF6
:103F7000880B990B0E94922226EF38E24CE950E41C
:103F80000E94F6220E94612221E0693C710508F43A
:103F900020E0822F0895CF93DF93219AE6E8F0E0A6
:103FA0008FE390E0918380838081918196958795BE
:103FB000A8E8B0E011969C938E9382E880938000ED
:103FC00089E18093810082E08093B0008093B1000A
:103FD0009EE19093B300C0E7D0E098819D7F9883E5
:103FE00087BB808191819695879511969C938E933E
:103FF00010920701109208011092090110920A0113
:104000001092060181E080930001DF91CF91089525
:10401000882341F0109207011092080110920901C3
:1040200010920A0182E087BBE0E7F0E080818260C5
:10403000808381E0809306010895E0E7F0E08081CD
:104040008D7F8083809186009091870096958795DB
:10405000909389008093880010920601089591E062
:10406000811101C090E09093000108951F920F927A
:104070000FB60F9211242F933F934F935F936F933B
:104080007F938F939F93AF93BF93EF93FF93809111
:10409000070190910801A0910901B0910A018038AF
:1040A0009E43A105B10538F180910001882349F0B4
:1040B00010920701109208011092090110920A0152
:1040C0001AC0E0E7F0E080818D7F808380918600D8
:1040D00090918700969587959093890080938800AA
:1040E0001092060110920701109208011092090126
:1040F00010920A0130C08091070190910801A091AF
:104100000901B0910A01AC01BD014F5F5F4F6F4FD4
:104110007F4F40930701509308016093090170930A
:104120000A01FC01E859FF4FE491809186009091CB
:104130008700E89F9001E99F300D1124A1E8B0E8C5
:104140000E94AD23880F892F881F990B919590931A
:10415000890080938800FF91EF91BF91AF919F916B
:104160008F917F916F915F914F913F912F910F9020
:104170000FBE0F901F9018951F920F920FB60F92BF
:1041800011248F939F93AF93BF9380910B019091D4
:104190000C01A0910D01B0910E010896A11DB11D59
:1041A00080930B0190930C01A0930D01B0930E012D
:1041B000BF91AF919F918F910F900FBE0F901F9065
:1041C0001895409101015091020160910301709195
:1041D0000401889580910B0190910C01A0910D0133
:1041E000B0910E0184179507A607B70790F31092B8
:1041F0000B0110920C0110920D0110920E01089506
:1042000080E895E20E942C220E94931F0E94562271
:104210000E9448216AE58AE50E94E72178943D984A
:10422000459A83B7817F846083BF83B7816083BFF2
:104230000E94CB1F80E00E942F207894C12CD12CAB
:1042400076016894C4F80E94E1208EE10E94F0217A
:10425000882359F0C0920101D0920201E09203013B
:10426000F09204010E94E120F0CF359BECCF81E079
:104270000E9408202FEB87E299E021508040904077
:10428000E1F700C000000E941D203599DECFDBCF92
:104290008AB180668AB981EA84BD15BC87E187BD91
:1042A00088BD85B5836085BD0895843F21E0920770
:1042B000F8F09C01213689E0380710F020E639E05B
:1042C000AFEFB0E00E94AD236052704E8F4F9F4F12
:1042D00020EC3FE340E050E00E948B2321153105A4
:1042E0004105510549F421E030E040E050E004C0D0
:1042F00028E030E040E050E0DA01C9012F3F31050D
:104300004105510520F08EEF90E0A0E0B0E087BDC0
:104310000895853B08F084EB282F30E0ACE6B7E049
:104320000E94AD2324EB30E040E050E00E948B235C
:10433000C9018C509E4F0E9455210895843F21E071
:104340009207F8F09C01213689E0380710F020E64A
:1043500039E0AFEFB0E00E94AD236052704E8F4F56
:104360009F4F20EC3FE340E050E00E948B2321155B
:1043700031054105510549F421E030E040E050E0CD
:1043800004C028E030E040E050E0DA01C9012F3FEE
:1043900031054105510520F08EEF90E0A0E0B0E03E
:1043A00088BD0895853B08F084EB282F30E0ACE60B
:1043B000B7E00E94AD2324EB30E040E050E00E94E3
:1043C0008B23C9018C509E4F0E949E210895CF934C
:1043D000C62F0E9489218C2F0E94D221CF9108954F
:1043E000EF92FF920F931F93CF93DF93082F8111CA
:1043F00001C001E0C0E0F12CD1E06C2F8C2F0E94B5
:10440000E7210E94B31F8111FD2E87E99AE30197EE
:10441000F1F700C00000C00FC53B78F3C4EBD0E05B
:10442000EE24E39410E06C2F8C2F0E94E7210E9471
:10443000B31F8111FE2C87E99AE30197F1F700C0C1
:104440000000C01BD10B7AF78F2DDF91CF911F9108
:104450000F91FF90EF9008959C01E0ECF0E08081D7
:1044600082608083C901A0E0B0E0880F991FAA1F75
:10447000BB1F880F991FAA1FBB1F9C01AD01220FF4
:10448000331F441F551F60E874E88EE190E00E94DE
:104490008B23215031093093C5002093C40080E163
:1044A0008093C10086E08093C2000895F894A89597
:1044B000E0E6F0E080818861808381E68083789403
:1044C00008950E94D52288F09F5798F0B92F992718
:1044D000B751B0F0E1F0660F771F881F991F1AF0EF
:1044E000BA95C9F714C0B13091F00E94EF22B1E043
:1044F00008950C94EF22672F782F8827B85F39F042
:10450000B93FCCF3869577956795B395D9F73EF487
:1045100090958095709561957F4F8F4F9F4F08952F
:10452000E89409C097FB3EF490958095709561954D
:104530007F4F8F4F9F4F9923A9F0F92F96E9BB2703
:104540009395F695879577956795B795F111F8CF7F
:10455000FAF4BB0F11F460FF1BC06F5F7F4F8F4FEA
:104560009F4F16C0882311F096E911C0772321F0E0
:104570009EE8872F762F05C0662371F096E8862F78
:1045800070E060E02AF09A95660F771F881FDAF7CF
:10459000880F9695879597F9089557FD9058440F81
:1045A000551F59F05F3F71F04795880F97FB991F92
:1045B00061F09F3F79F0879508951216130614064F
:1045C000551FF2CF4695F1DF08C0161617061806DC
:1045D000991FF1CF86957105610508940895E894B7
:1045E000BB2766277727CB0197F908950E940923F7
:1045F0000C947A230E946C2338F00E94732320F0DD
:10460000952311F00C9463230C94692311240C94CA
:10461000F0220E94CD2270F3959FC1F3950F50E0D8
:10462000551F629FF001729FBB27F00DB11D639F64
:10463000AA27F00DB11DAA1F649F6627B00DA11D0A
:10464000661F829F2227B00DA11D621F739FB00DB0
:10465000A11D621F839FA00D611D221F749F332720
:10466000A00D611D231F849F600D211D822F762FB9
:104670006A2F11249F5750409AF0F1F088234AF096
:10468000EE0FFF1FBB1F661F771F881F9150504002
:10469000A9F79E3F510580F00C9463230C94F022FF
:1046A0005F3FE4F3983ED4F3869577956795B79589
:1046B000F795E7959F5FC1F7FE2B880F911D9695A3
:1046C000879597F9089597F99F6780E870E060E013
:1046D00008959FEF80EC089500240A94161617069B
:1046E00018060906089500240A94121613061406E3
:1046F00005060895092E0394000C11F4882352F046
:10470000BB0F40F4BF2B11F460FF04C06F5F7F4FFD
:104710008F4F9F4F0895A1E21A2EAA1BBB1BFD01CC
:104720000DC0AA1FBB1FEE1FFF1FA217B307E40790
:10473000F50720F0A21BB30BE40BF50B661F771FE8
:10474000881F991F1A9469F76095709580959095C8
:104750009B01AC01BD01CF010895A29FB001B39FA1
:10476000C001A39F700D811D1124911DB29F700D7A
:0C477000811D1124911D0895F894FFCFC5
:06477C00011E0000000018
:00000001FF
